{
  "_format": "hh-sol-artifact-1",
  "contractName": "FlashLoan",
  "sourceName": "contracts/FlashLoan.sol",
  "abi": [
    {
      "inputs": [
        {
          "internalType": "uint256",
          "name": "_feeBps",
          "type": "uint256"
        }
      ],
      "stateMutability": "nonpayable",
      "type": "constructor"
    },
    {
      "inputs": [],
      "name": "feeBps",
      "outputs": [
        {
          "internalType": "uint256",
          "name": "",
          "type": "uint256"
        }
      ],
      "stateMutability": "view",
      "type": "function"
    },
    {
      "inputs": [
        {
          "internalType": "address",
          "name": "receiver",
          "type": "address"
        },
        {
          "internalType": "uint256",
          "name": "amount",
          "type": "uint256"
        }
      ],
      "name": "flashLoan",
      "outputs": [],
      "stateMutability": "nonpayable",
      "type": "function"
    },
    {
      "inputs": [],
      "name": "owner",
      "outputs": [
        {
          "internalType": "address",
          "name": "",
          "type": "address"
        }
      ],
      "stateMutability": "view",
      "type": "function"
    },
    {
      "stateMutability": "payable",
      "type": "receive"
    }
  ],
  "bytecode": "0x608060405234801561001057600080fd5b506040516107ff3803806107ff833981810160405281019061003291906100ba565b336000806101000a81548173ffffffffffffffffffffffffffffffffffffffff021916908373ffffffffffffffffffffffffffffffffffffffff16021790555080600181905550506100e7565b600080fd5b6000819050919050565b61009781610084565b81146100a257600080fd5b50565b6000815190506100b48161008e565b92915050565b6000602082840312156100d0576100cf61007f565b5b60006100de848285016100a5565b91505092915050565b610709806100f66000396000f3fe6080604052600436106100385760003560e01c806324a9d853146100445780638da5cb5b1461006f5780639d9e465c1461009a5761003f565b3661003f57005b600080fd5b34801561005057600080fd5b506100596100c3565b60405161006691906102f6565b60405180910390f35b34801561007b57600080fd5b506100846100c9565b6040516100919190610352565b60405180910390f35b3480156100a657600080fd5b506100c160048036038101906100bc91906103ca565b6100ed565b005b60015481565b60008054906101000a900473ffffffffffffffffffffffffffffffffffffffff1681565b600047905081811015610135576040517f08c379a000000000000000000000000000000000000000000000000000000000815260040161012c90610467565b60405180910390fd5b60008373ffffffffffffffffffffffffffffffffffffffff168360405161015b906104b8565b60006040518083038185875af1925050503d8060008114610198576040519150601f19603f3d011682016040523d82523d6000602084013e61019d565b606091505b50509050806101e1576040517f08c379a00000000000000000000000000000000000000000000000000000000081526004016101d890610519565b60405180910390fd5b8373ffffffffffffffffffffffffffffffffffffffff1663f494ffb16000856001546040518463ffffffff1660e01b8152600401610220929190610539565b6000604051808303818588803b15801561023957600080fd5b505af115801561024d573d6000803e3d6000fd5b50505050506000612710600154856102659190610591565b61026f9190610602565b90506000818561027f9190610633565b9050600047905082856102929190610633565b8110156102d4576040517f08c379a00000000000000000000000000000000000000000000000000000000081526004016102cb906106b3565b60405180910390fd5b50505050505050565b6000819050919050565b6102f0816102dd565b82525050565b600060208201905061030b60008301846102e7565b92915050565b600073ffffffffffffffffffffffffffffffffffffffff82169050919050565b600061033c82610311565b9050919050565b61034c81610331565b82525050565b60006020820190506103676000830184610343565b92915050565b600080fd5b61037b81610331565b811461038657600080fd5b50565b60008135905061039881610372565b92915050565b6103a7816102dd565b81146103b257600080fd5b50565b6000813590506103c48161039e565b92915050565b600080604083850312156103e1576103e061036d565b5b60006103ef85828601610389565b9250506020610400858286016103b5565b9150509250929050565b600082825260208201905092915050565b7f4e6f7420656e6f756768206c6971756964697479000000000000000000000000600082015250565b600061045160148361040a565b915061045c8261041b565b602082019050919050565b6000602082019050818103600083015261048081610444565b9050919050565b600081905092915050565b50565b60006104a2600083610487565b91506104ad82610492565b600082019050919050565b60006104c382610495565b9150819050919050565b7f4c6f616e207472616e73666572206661696c6564000000000000000000000000600082015250565b600061050360148361040a565b915061050e826104cd565b602082019050919050565b60006020820190508181036000830152610532816104f6565b9050919050565b600060408201905061054e60008301856102e7565b61055b60208301846102e7565b9392505050565b7f4e487b7100000000000000000000000000000000000000000000000000000000600052601160045260246000fd5b600061059c826102dd565b91506105a7836102dd565b92508282026105b5816102dd565b915082820484148315176105cc576105cb610562565b5b5092915050565b7f4e487b7100000000000000000000000000000000000000000000000000000000600052601260045260246000fd5b600061060d826102dd565b9150610618836102dd565b925082610628576106276105d3565b5b828204905092915050565b600061063e826102dd565b9150610649836102dd565b925082820190508082111561066157610660610562565b5b92915050565b7f4c6f616e206e6f74207265706169642077697468206665650000000000000000600082015250565b600061069d60188361040a565b91506106a882610667565b602082019050919050565b600060208201905081810360008301526106cc81610690565b905091905056fea2646970667358221220f98a4fc9626ca932e2f99eae167653ed675800faf8bc305055a4e57e51a29d5564736f6c63430008140033",
  "linkReferences": {},
  "deployedLinkReferences": {}
}