{
  "_format": "hh-sol-artifact-1",
  "contractName": "TestReceiver",
  "sourceName": "contracts/TestReceiver.sol",
  "abi": [
    {
      "inputs": [
        {
          "internalType": "address",
          "name": "_lender",
          "type": "address"
        }
      ],
      "stateMutability": "nonpayable",
      "type": "constructor"
    },
    {
      "anonymous": false,
      "inputs": [
        {
          "indexed": false,
          "internalType": "uint256",
          "name": "amount",
          "type": "uint256"
        },
        {
          "indexed": false,
          "internalType": "uint256",
          "name": "fee",
          "type": "uint256"
        }
      ],
      "name": "Executed",
      "type": "event"
    },
    {
      "inputs": [
        {
          "internalType": "uint256",
          "name": "amount",
          "type": "uint256"
        },
        {
          "internalType": "uint256",
          "name": "feeBps",
          "type": "uint256"
        }
      ],
      "name": "executeOnLoan",
      "outputs": [],
      "stateMutability": "payable",
      "type": "function"
    },
    {
      "inputs": [],
      "name": "fund",
      "outputs": [],
      "stateMutability": "payable",
      "type": "function"
    },
    {
      "inputs": [],
      "name": "lender",
      "outputs": [
        {
          "internalType": "address",
          "name": "",
          "type": "address"
        }
      ],
      "stateMutability": "view",
      "type": "function"
    }
  ],
  "bytecode": "0x608060405234801561001057600080fd5b5060405161060e38038061060e833981810160405281019061003291906100db565b806000806101000a81548173ffffffffffffffffffffffffffffffffffffffff021916908373ffffffffffffffffffffffffffffffffffffffff16021790555050610108565b600080fd5b600073ffffffffffffffffffffffffffffffffffffffff82169050919050565b60006100a88261007d565b9050919050565b6100b88161009d565b81146100c357600080fd5b50565b6000815190506100d5816100af565b92915050565b6000602082840312156100f1576100f0610078565b5b60006100ff848285016100c6565b91505092915050565b6104f7806101176000396000f3fe6080604052600436106100345760003560e01c8063b60d428814610039578063bcead63e14610043578063f494ffb11461006e575b600080fd5b61004161008a565b005b34801561004f57600080fd5b5061005861008c565b604051610065919061022b565b60405180910390f35b61008860048036038101906100839190610281565b6100b0565b005b565b60008054906101000a900473ffffffffffffffffffffffffffffffffffffffff1681565b600061271082846100c191906102f0565b6100cb9190610361565b9050600081846100db9190610392565b905060008060009054906101000a900473ffffffffffffffffffffffffffffffffffffffff1673ffffffffffffffffffffffffffffffffffffffff1682604051610124906103f7565b60006040518083038185875af1925050503d8060008114610161576040519150601f19603f3d011682016040523d82523d6000602084013e610166565b606091505b50509050806101aa576040517f08c379a00000000000000000000000000000000000000000000000000000000081526004016101a190610469565b60405180910390fd5b7f6cbfbb9b98ba7bb20bf4e76a5755fce5428cbeb7fdd7cd433fd3d63062476b8085846040516101db929190610498565b60405180910390a15050505050565b600073ffffffffffffffffffffffffffffffffffffffff82169050919050565b6000610215826101ea565b9050919050565b6102258161020a565b82525050565b6000602082019050610240600083018461021c565b92915050565b600080fd5b6000819050919050565b61025e8161024b565b811461026957600080fd5b50565b60008135905061027b81610255565b92915050565b6000806040838503121561029857610297610246565b5b60006102a68582860161026c565b92505060206102b78582860161026c565b9150509250929050565b7f4e487b7100000000000000000000000000000000000000000000000000000000600052601160045260246000fd5b60006102fb8261024b565b91506103068361024b565b92508282026103148161024b565b9150828204841483151761032b5761032a6102c1565b5b5092915050565b7f4e487b7100000000000000000000000000000000000000000000000000000000600052601260045260246000fd5b600061036c8261024b565b91506103778361024b565b92508261038757610386610332565b5b828204905092915050565b600061039d8261024b565b91506103a88361024b565b92508282019050808211156103c0576103bf6102c1565b5b92915050565b600081905092915050565b50565b60006103e16000836103c6565b91506103ec826103d1565b600082019050919050565b6000610402826103d4565b9150819050919050565b600082825260208201905092915050565b7f5265706179206661696c65640000000000000000000000000000000000000000600082015250565b6000610453600c8361040c565b915061045e8261041d565b602082019050919050565b6000602082019050818103600083015261048281610446565b9050919050565b6104928161024b565b82525050565b60006040820190506104ad6000830185610489565b6104ba6020830184610489565b939250505056fea2646970667358221220e384d724d6378d4bc2cfed2e96acf112e8666748d1b7f6f3cd4328419b2bc33664736f6c63430008140033",
  "linkReferences": {},
  "deployedLinkReferences": {}
}